PAY15211129600542404160712404160CENTINEL0000000000000770705746     CLP0770705746          000000049840964      Traspaso a cuenta operacione                                                                                                                0101CENTINELA SOLAR SpA                                                             SANTIAGO                                                              SANTIAGO       RM00000001    0000000000000000001SANTIAGO112960058                          01SANTIAGO                      00000              000                   0000000000000000                                   000000000001001                                                  00122                                                  999999999999999300000000000  C                                                                                                                                                                                                                                                             
PAY15211132600562404160712404161GR CHAPI0000000100000772879350     CLP0772879350          000000021481561      Fondeo de la cuenta revenues a la c                                                                                                         0101GR CHAPIQUINA SOLAR                                                             SANTIAGO                                                              SANTIAGO       RM00000001    0000000000000000001SANTIAGO113188057                          01SANTIAGO                      00000              000                   0000000000000000                                   000000000001001                                                  00122                                                  999999999999999300000000000  C                                                                                                                                                                                                                                                             
PAY15211126710522404160712404162GR LLEUQ0000000200000768853215     CLP0768853215          000000057553029      TRASPASO                                                                                                                                    0101GR LLEUQUE SPA                                                                  SANTIAGO                                                              SANTIAGO       RM00000001    0000000000000000001SANTIAGO112671056                          01SANTIAGO                      00000              000                   0000000000000000                                   000000000001001                                                  00122                                                  999999999999999300000000000  C                                                                                                                                                                                                                                                             
PAY15211129590562404160712404163CE URIBE0000000300000772660421     CLP0772660421          000000043984756      Fondeo de la cuenta revenues a la c                                                                                                         0101CE URIBE DE ANTOFAGASTA SOLAR SpA                                               SANTIAGO                                                              SANTIAGO       RM00000001    0000000000000000001SANTIAGO112959068                          01SANTIAGO                      00000              000                   0000000000000000                                   000000000001001                                                  00122                                                  999999999999999300000000000  C                                                                                                                                                                                                                                                             
PAY15211129580682404160712404164GR TORRE0000000400000771309836     CLP0771309836          000000029528510      TRASPASO                                                                                                                                    0101GR TORRES DEL PAINE SPA                                                         SANTIAGO                                                              SANTIAGO       RM00000001    0000000000000000001SANTIAGO112958053                          01SANTIAGO                      00000              000                   0000000000000000                                   000000000001001                                                  00122                                                  999999999999999300000000000  C                                                                                                                                                                                                                                                             
PAY15211131290572404160712404165Planta S0000000500000772620772     CLP0772620772          000000026005240      Fondeo de la cuenta revenue a la cu                                                                                                         0101Planta Solar La Paz II SpA                                                      SANTIAGO                                                              SANTIAGO       RM00000001    0000000000000000001SANTIAGO113129069                          01SANTIAGO                      00000              000                   0000000000000000                                   000000000001001                                                  00122                                                  999999999999999300000000000  C                                                                                                                                                                                                                                                             
PAY15211131490582404160712404166PLANTA S0000000600000772620756     CLP0772620756          000000069305267      TRASPASO                                                                                                                                    0101PLANTA SOLAR LO MIGUEL II SPA,                                                  SANTIAGO                                                              SANTIAGO       RM00000001    0000000000000000001SANTIAGO113149051                          01SANTIAGO                      00000              000                   0000000000000000                                   000000000001001                                                  00122                                                  999999999999999300000000000  C                                                                                                                                                                                                                                                             
PAY15211126720592404160712404167GR RUIL 0000000700000768853371     CLP0768853371          000000054788621      TRASPASO                                                                                                                                    0101GR RUIL SPA                                                                     SANTIAGO                                                              SANTIAGO       RM00000001    0000000000000000001SANTIAGO112672052                          01SANTIAGO                      00000              000                   0000000000000000                                   000000000001001                                                  00122                                                  999999999999999300000000000  C                                                                                                                                                                                                                                                             
PAY15211126700722404160712404168GR PALMA0000000800000772620756     CLP0772620756          000000026502695      Traspaso de Palmas de Cocalán a la                                                                                                          0101GR PALMAS DE COCALÁN SPA                                                        SANTIAGO                                                              SANTIAGO       RM00000001    0000000000000000001SANTIAGO113213051                          01SANTIAGO                      00000              000                   0000000000000000                                   000000000001001                                                  00122                                                  999999999999999300000000000  C                                                                                                                                                                                                                                                             
PAY15211129610692404160712404169GR ALERC0000000900000771309860     CLP0771309860          000000042970407      Fondeo de la cuenta de revenues a o                                                                                                         0101GR ALERCE ANDINO SPA                                                            SANTIAGO                                                              SANTIAGO       RM00000001    0000000000000000001SANTIAGO112961054                          01SANTIAGO                      00000              000                   0000000000000000                                   000000000001001                                                  00122                                                  999999999999999300000000000  C                                                                                                                                                                                                                                                             
TRL000000000000010000000421961050000000000000000000000000000010                                     